{
  "_format": "hh-sol-artifact-1",
  "contractName": "ClaimOracle",
  "sourceName": "contracts/ClaimOracle.sol",
  "abi": [
    {
      "anonymous": false,
      "inputs": [
        {
          "indexed": true,
          "internalType": "uint256",
          "name": "tokenId",
          "type": "uint256"
        },
        {
          "indexed": false,
          "internalType": "bool",
          "name": "claimable",
          "type": "bool"
        },
        {
          "indexed": false,
          "internalType": "uint256",
          "name": "claimAmount",
          "type": "uint256"
        },
        {
          "indexed": false,
          "internalType": "address",
          "name": "owner",
          "type": "address"
        }
      ],
      "name": "ClaimFulfilled",
      "type": "event"
    },
    {
      "anonymous": false,
      "inputs": [
        {
          "indexed": true,
          "internalType": "uint256",
          "name": "tokenId",
          "type": "uint256"
        },
        {
          "indexed": false,
          "internalType": "string",
          "name": "data",
          "type": "string"
        },
        {
          "indexed": false,
          "internalType": "address",
          "name": "requester",
          "type": "address"
        }
      ],
      "name": "ClaimRequested",
      "type": "event"
    },
    {
      "inputs": [],
      "name": "claimFee",
      "outputs": [
        {
          "internalType": "uint256",
          "name": "",
          "type": "uint256"
        }
      ],
      "stateMutability": "view",
      "type": "function"
    },
    {
      "inputs": [
        {
          "internalType": "uint256",
          "name": "tokenId",
          "type": "uint256"
        },
        {
          "internalType": "bool",
          "name": "claimable",
          "type": "bool"
        },
        {
          "internalType": "uint256",
          "name": "claimAmount",
          "type": "uint256"
        }
      ],
      "name": "fulfillClaim",
      "outputs": [],
      "stateMutability": "nonpayable",
      "type": "function"
    },
    {
      "inputs": [
        {
          "internalType": "uint256",
          "name": "tokenId",
          "type": "uint256"
        },
        {
          "internalType": "string",
          "name": "data",
          "type": "string"
        }
      ],
      "name": "requestClaim",
      "outputs": [],
      "stateMutability": "payable",
      "type": "function"
    },
    {
      "inputs": [
        {
          "internalType": "uint256",
          "name": "newFee",
          "type": "uint256"
        }
      ],
      "name": "updateClaimFee",
      "outputs": [],
      "stateMutability": "nonpayable",
      "type": "function"
    },
    {
      "inputs": [
        {
          "internalType": "address",
          "name": "to",
          "type": "address"
        },
        {
          "internalType": "uint256",
          "name": "amount",
          "type": "uint256"
        }
      ],
      "name": "withdraw",
      "outputs": [],
      "stateMutability": "nonpayable",
      "type": "function"
    },
    {
      "stateMutability": "payable",
      "type": "receive"
    }
  ],
  "bytecode": "0x6080604052662386f26fc10000600255348015601a57600080fd5b506106758061002a6000396000f3fe60806040526004361061004e5760003560e01c80637316319b1461005a57806399d32fc41461006f578063a6c9c29e14610097578063b20b8403146100b7578063f3fef3a3146100d757600080fd5b3661005557005b600080fd5b61006d6100683660046104f2565b6100f7565b005b34801561007b57600080fd5b5061008560025481565b60405190815260200160405180910390f35b3480156100a357600080fd5b5061006d6100b2366004610570565b61020f565b3480156100c357600080fd5b5061006d6100d23660046105ad565b600255565b3480156100e357600080fd5b5061006d6100f23660046105c6565b6103c9565b60025434146101465760405162461bcd60e51b8152602060048201526016602482015275496e73756666696369656e7420636c61696d2066656560501b60448201526064015b60405180910390fd5b6000838152602081905260409020546001600160a01b0316156101ab5760405162461bcd60e51b815260206004820152601960248201527f436c61696d20616c726561647920696e2070726f677265737300000000000000604482015260640161013d565b6000838152602081905260409081902080546001600160a01b03191633908117909155905184917fc31ed0e2ecaa2905cfa253e50dbadb32557a41ab2fc6a1a634afc08f50f365d2916102029186918691906105fe565b60405180910390a2505050565b6000838152602081905260409020546001600160a01b03168061026d5760405162461bcd60e51b8152602060048201526016602482015275139bc818db185a5b481c995c5d595cdd08199bdd5b9960521b604482015260640161013d565b600084815260208190526040902080546001600160a01b0319169055821561037657814710156102df5760405162461bcd60e51b815260206004820152601d60248201527f496e73756666696369656e7420636f6e74726163742062616c616e6365000000604482015260640161013d565b6000816001600160a01b03168360405160006040518083038185875af1925050503d806000811461032c576040519150601f19603f3d011682016040523d82523d6000602084013e610331565b606091505b50509050806103745760405162461bcd60e51b815260206004820152600f60248201526e151c985b9cd9995c8819985a5b1959608a1b604482015260640161013d565b505b604080518415158152602081018490526001600160a01b03831681830152905185917f3bc9f315fb1c19b2d9a368466c3cc248d21891a49c2f92bb85e0137bb23146ea919081900360600190a250505050565b6001600160a01b0382166104115760405162461bcd60e51b815260206004820152600f60248201526e496e76616c6964206164647265737360881b604482015260640161013d565b804710156104585760405162461bcd60e51b8152602060048201526014602482015273496e73756666696369656e742062616c616e636560601b604482015260640161013d565b6000826001600160a01b03168260405160006040518083038185875af1925050503d80600081146104a5576040519150601f19603f3d011682016040523d82523d6000602084013e6104aa565b606091505b50509050806104ed5760405162461bcd60e51b815260206004820152600f60248201526e15da5d1a191c985dc819985a5b1959608a1b604482015260640161013d565b505050565b60008060006040848603121561050757600080fd5b83359250602084013567ffffffffffffffff81111561052557600080fd5b8401601f8101861361053657600080fd5b803567ffffffffffffffff81111561054d57600080fd5b86602082840101111561055f57600080fd5b939660209190910195509293505050565b60008060006060848603121561058557600080fd5b833592506020840135801515811461059c57600080fd5b929592945050506040919091013590565b6000602082840312156105bf57600080fd5b5035919050565b600080604083850312156105d957600080fd5b82356001600160a01b03811681146105f057600080fd5b946020939093013593505050565b6040815282604082015282846060830137600060608483018101919091526001600160a01b03929092166020820152601f909201601f19169091010191905056fea264697066735822122081a9d933401c31f925ca7169459548b53341a037173379d05119867034d0249f64736f6c634300081b0033",
  "linkReferences": {},
  "deployedLinkReferences": {}
}