{
  "_format": "hh-sol-artifact-1",
  "contractName": "PHRNFT",
  "sourceName": "contracts/PHRNFT.sol",
  "abi": [
    {
      "inputs": [
        {
          "internalType": "address",
          "name": "_oracle",
          "type": "address"
        },
        {
          "internalType": "bytes32",
          "name": "_jobId",
          "type": "bytes32"
        },
        {
          "internalType": "uint256",
          "name": "_fee",
          "type": "uint256"
        },
        {
          "internalType": "address",
          "name": "_link",
          "type": "address"
        }
      ],
      "stateMutability": "nonpayable",
      "type": "constructor"
    },
    {
      "anonymous": false,
      "inputs": [
        {
          "indexed": true,
          "internalType": "bytes32",
          "name": "id",
          "type": "bytes32"
        }
      ],
      "name": "ChainlinkCancelled",
      "type": "event"
    },
    {
      "anonymous": false,
      "inputs": [
        {
          "indexed": true,
          "internalType": "bytes32",
          "name": "id",
          "type": "bytes32"
        }
      ],
      "name": "ChainlinkFulfilled",
      "type": "event"
    },
    {
      "anonymous": false,
      "inputs": [
        {
          "indexed": true,
          "internalType": "bytes32",
          "name": "id",
          "type": "bytes32"
        }
      ],
      "name": "ChainlinkRequested",
      "type": "event"
    },
    {
      "anonymous": false,
      "inputs": [
        {
          "indexed": true,
          "internalType": "uint256",
          "name": "tokenId",
          "type": "uint256"
        },
        {
          "indexed": false,
          "internalType": "uint256",
          "name": "claimAmount",
          "type": "uint256"
        },
        {
          "indexed": false,
          "internalType": "address",
          "name": "owner",
          "type": "address"
        }
      ],
      "name": "ClaimProcessed",
      "type": "event"
    },
    {
      "anonymous": false,
      "inputs": [
        {
          "indexed": true,
          "internalType": "address",
          "name": "from",
          "type": "address"
        },
        {
          "indexed": true,
          "internalType": "address",
          "name": "to",
          "type": "address"
        },
        {
          "indexed": true,
          "internalType": "uint256",
          "name": "tokenId",
          "type": "uint256"
        }
      ],
      "name": "Transfer",
      "type": "event"
    },
    {
      "inputs": [
        {
          "internalType": "address",
          "name": "owner",
          "type": "address"
        }
      ],
      "name": "balanceOf",
      "outputs": [
        {
          "internalType": "uint256",
          "name": "",
          "type": "uint256"
        }
      ],
      "stateMutability": "view",
      "type": "function"
    },
    {
      "inputs": [
        {
          "internalType": "bytes32",
          "name": "_requestId",
          "type": "bytes32"
        },
        {
          "internalType": "uint256",
          "name": "tokenId",
          "type": "uint256"
        },
        {
          "internalType": "bool",
          "name": "claimable",
          "type": "bool"
        },
        {
          "internalType": "uint256",
          "name": "claimAmount",
          "type": "uint256"
        }
      ],
      "name": "fulfillClaim",
      "outputs": [],
      "stateMutability": "nonpayable",
      "type": "function"
    },
    {
      "inputs": [
        {
          "internalType": "uint256",
          "name": "tokenId",
          "type": "uint256"
        }
      ],
      "name": "getMedicalRecord",
      "outputs": [
        {
          "internalType": "string",
          "name": "",
          "type": "string"
        },
        {
          "internalType": "string",
          "name": "",
          "type": "string"
        }
      ],
      "stateMutability": "view",
      "type": "function"
    },
    {
      "inputs": [
        {
          "internalType": "address",
          "name": "to",
          "type": "address"
        },
        {
          "internalType": "string",
          "name": "encryptedData",
          "type": "string"
        },
        {
          "internalType": "string",
          "name": "icd10Code",
          "type": "string"
        }
      ],
      "name": "mint",
      "outputs": [
        {
          "internalType": "uint256",
          "name": "",
          "type": "uint256"
        }
      ],
      "stateMutability": "nonpayable",
      "type": "function"
    },
    {
      "inputs": [
        {
          "internalType": "uint256",
          "name": "tokenId",
          "type": "uint256"
        }
      ],
      "name": "ownerOf",
      "outputs": [
        {
          "internalType": "address",
          "name": "",
          "type": "address"
        }
      ],
      "stateMutability": "view",
      "type": "function"
    },
    {
      "inputs": [
        {
          "internalType": "uint256",
          "name": "tokenId",
          "type": "uint256"
        }
      ],
      "name": "requestClaim",
      "outputs": [
        {
          "internalType": "bytes32",
          "name": "requestId",
          "type": "bytes32"
        }
      ],
      "stateMutability": "nonpayable",
      "type": "function"
    },
    {
      "inputs": [
        {
          "internalType": "bytes4",
          "name": "interfaceId",
          "type": "bytes4"
        }
      ],
      "name": "supportsInterface",
      "outputs": [
        {
          "internalType": "bool",
          "name": "",
          "type": "bool"
        }
      ],
      "stateMutability": "pure",
      "type": "function"
    },
    {
      "inputs": [],
      "name": "tokenCounter",
      "outputs": [
        {
          "internalType": "uint256",
          "name": "",
          "type": "uint256"
        }
      ],
      "stateMutability": "view",
      "type": "function"
    },
    {
      "stateMutability": "payable",
      "type": "receive"
    }
  ],
  "bytecode": "0x60806040526001600455348015601457600080fd5b50604051611868380380611868833981016040819052603191609e565b600a80546001600160a01b0319166001600160a01b038616179055600b839055600c829055607b81600280546001600160a01b0319166001600160a01b0392909216919091179055565b5050505060df565b80516001600160a01b0381168114609957600080fd5b919050565b6000806000806080858703121560b357600080fd5b60ba856083565b9350602085015192506040850151915060d4606086016083565b905092959194509250565b61177a806100ee6000396000f3fe60806040526004361061007f5760003560e01c8063990711901161004e57806399071190146101655780639ef6231014610185578063d082e381146101a7578063e00b288a146101bc57600080fd5b806301ffc9a71461008b5780630c388722146100d15780636352211e146100ff57806370a082311461013757600080fd5b3661008657005b600080fd5b34801561009757600080fd5b506100bc6100a636600461118a565b6001600160e01b0319166313f2a32f60e01b1490565b60405190151581526020015b60405180910390f35b3480156100dd57600080fd5b506100f16100ec3660046111b4565b6101dc565b6040516100c8929190611213565b34801561010b57600080fd5b5061011f61011a3660046111b4565b610375565b6040516001600160a01b0390911681526020016100c8565b34801561014357600080fd5b50610157610152366004611254565b6103f2565b6040519081526020016100c8565b34801561017157600080fd5b506101576101803660046112b7565b610475565b34801561019157600080fd5b506101a56101a036600461134c565b61060f565b005b3480156101b357600080fd5b50600954610157565b3480156101c857600080fd5b506101576101d73660046111b4565b610849565b606080610200836000908152600660205260409020546001600160a01b0316151590565b6102255760405162461bcd60e51b815260040161021c9061138b565b60405180910390fd5b600083815260086020526040808220815180830190925280548290829061024b906113c2565b80601f0160208091040260200160405190810160405280929190818152602001828054610277906113c2565b80156102c45780601f10610299576101008083540402835291602001916102c4565b820191906000526020600020905b8154815290600101906020018083116102a757829003601f168201915b505050505081526020016001820180546102dd906113c2565b80601f0160208091040260200160405190810160405280929190818152602001828054610309906113c2565b80156103565780601f1061032b57610100808354040283529160200191610356565b820191906000526020600020905b81548152906001019060200180831161033957829003601f168201915b5050505050815250509050806000015181602001519250925050915091565b6000818152600660205260408120546001600160a01b0316806103ec5760405162461bcd60e51b815260206004820152602960248201527f5048524e46543a206f776e657220717565727920666f72206e6f6e657869737460448201526832b73a103a37b5b2b760b91b606482015260840161021c565b92915050565b60006001600160a01b0382166104595760405162461bcd60e51b815260206004820152602660248201527f5048524e46543a2062616c616e636520717565727920666f72207a65726f206160448201526564647265737360d01b606482015260840161021c565b506001600160a01b031660009081526007602052604090205490565b60006001600160a01b0386166104cd5760405162461bcd60e51b815260206004820181905260248201527f5048524e46543a206d696e7420746f20746865207a65726f2061646472657373604482015260640161021c565b600954600081815260066020908152604080832080546001600160a01b0319166001600160a01b038c169081179091558352600790915281208054916105128361140c565b90915550506040805160606020601f89018190040282018101835291810187815290918291908990899081908501838280828437600092019190915250505090825250604080516020601f8801819004810282018101909252868152918101919087908790819084018382808284376000920182905250939094525050838152600860205260409020825190915081906105ac9082611489565b50602082015160018201906105c19082611489565b50506040518291506001600160a01b038916906000907fddf252ad1be2c89b69c2b068fc378daa952ba7f163c4a11628f55a4df523b3ef908290a46009805460010190559695505050505050565b60008481526005602052604090205484906001600160a01b031633146106885760405162461bcd60e51b815260206004820152602860248201527f536f75726365206d75737420626520746865206f7261636c65206f6620746865604482015267081c995c5d595cdd60c21b606482015260840161021c565b60008181526005602052604080822080546001600160a01b03191690555182917f7cc135e0cebb02c3480ae5d74d377283180a2601f8f644edf7987b009316c63a91a26000848152600660205260409020546001600160a01b03166106ff5760405162461bcd60e51b815260040161021c9061138b565b8261074c5760405162461bcd60e51b815260206004820152601a60248201527f5048524e46543a20436c61696d206973206e6f742076616c6964000000000000604482015260640161021c565b6000848152600660205260408082205490516001600160a01b039091169190829085908381818185875af1925050503d80600081146107a7576040519150601f19603f3d011682016040523d82523d6000602084013e6107ac565b606091505b50509050806107fd5760405162461bcd60e51b815260206004820152601760248201527f5048524e46543a205472616e73666572206661696c6564000000000000000000604482015260640161021c565b604080518581526001600160a01b038416602082015287917ffcd487797d98fddddb0540162af212e580fc5387a6cf192426a5426c097a23c0910160405180910390a250505050505050565b6000818152600660205260408120546001600160a01b031661087d5760405162461bcd60e51b815260040161021c9061138b565b60008281526008602052604080822081518083019092528054829082906108a3906113c2565b80601f01602080910402602001604051908101604052809291908181526020018280546108cf906113c2565b801561091c5780601f106108f15761010080835404028352916020019161091c565b820191906000526020600020905b8154815290600101906020018083116108ff57829003601f168201915b50505050508152602001600182018054610935906113c2565b80601f0160208091040260200160405190810160405280929190818152602001828054610961906113c2565b80156109ae5780601f10610983576101008083540402835291602001916109ae565b820191906000526020600020905b81548152906001019060200180831161099157829003601f168201915b505050505081525050905060006109cf600b5430639ef6231060e01b610a58565b9050610a0b604051806040016040528060098152602001686963643130436f646560b81b815250836020015183610a7d9092919063ffffffff16565b6040805180820190915260078152661d1bdad95b925960ca1b6020820152610a3590829086610aa0565b600a54600c54610a50916001600160a01b0316908390610abe565b949350505050565b610a6061114f565b610a6861114f565b610a7481868686610b51565b95945050505050565b6080830151610a8c9083610b8e565b6080830151610a9b9082610b8e565b505050565b6080830151610aaf9083610b8e565b6080830151610a9b9082610ba5565b600454600090610acf816001611547565b600455835160408086015160808701515191516000936320214ca360e11b93610b079386938493923092918a9160019160240161155a565b60408051601f198184030181529190526020810180516001600160e01b03166001600160e01b0319909316929092179091529050610b4786838684610bce565b9695505050505050565b610b5961114f565b610b698560800151610100610d2c565b50509183526001600160a01b031660208301526001600160e01b031916604082015290565b610b9b8260038351610d91565b610a9b8282610e9e565b6001600160401b03811115610bc257610bbe8282610ecc565b5050565b610bbe82600083610d91565b6040516bffffffffffffffffffffffff193060601b1660208201526034810184905260009060540160408051808303601f1901815282825280516020918201206000818152600590925291812080546001600160a01b0319166001600160a01b038a1617905590925082917fb5e6e01e79f91267dc17b4e6314d5d4d03593d2ceee0fbb452b750bd70ea5af99190a2600254604051630200057560e51b81526001600160a01b0390911690634000aea090610c91908890879087906004016115c1565b6020604051808303816000875af1158015610cb0573d6000803e3d6000fd5b505050506040513d601f19601f82011682018060405250810190610cd491906115e8565b610a505760405162461bcd60e51b815260206004820152602360248201527f756e61626c6520746f207472616e73666572416e6443616c6c20746f206f7261604482015262636c6560e81b606482015260840161021c565b604080518082019091526060815260006020820152610d4c602083611605565b15610d7457610d5c602083611605565b610d67906020611627565b610d719083611547565b91505b506020828101829052604080518085526000815290920101905290565b6017816001600160401b031611610dbb57610db58360e0600585901b168317610f03565b50505050565b60ff816001600160401b031611610df757610de1836018611fe0600586901b1617610f03565b50610db5836001600160401b0383166001610f28565b61ffff816001600160401b031611610e3457610e1e836019611fe0600586901b1617610f03565b50610db5836001600160401b0383166002610f28565b63ffffffff816001600160401b031611610e7357610e5d83601a611fe0600586901b1617610f03565b50610db5836001600160401b0383166004610f28565b610e8883601b611fe0600586901b1617610f03565b50610db5836001600160401b0383166008610f28565b604080518082019091526060815260006020820152610ec583846000015151848551610f4e565b9392505050565b610ed78260c2610f03565b50610bbe8282604051602001610eef91815260200190565b604051602081830303815290604052611038565b604080518082019091526060815260006020820152610ec58384600001515184611045565b604080518082019091526060815260006020820152610a508485600001515185856110a0565b6040805180820190915260608152600060208201528251821115610f7157600080fd5b6020850151610f808386611547565b1115610fb357610fb385610fa387602001518786610f9e9190611547565b611121565b610fae90600261163a565b611138565b600080865180518760208301019350808887011115610fd25787860182525b505050602084015b602084106110125780518252610ff1602083611547565b9150610ffe602082611547565b905061100b602085611627565b9350610fda565b51815160001960208690036101000a019081169019919091161790525083949350505050565b610b9b8260028351610d91565b6040805180820190915260608152600060208201528360200151831061107a5761107a8485602001516002610fae919061163a565b8351805160208583010184815350808503611096576001810182525b5093949350505050565b60408051808201909152606081526000602082015260208501516110c48584611547565b11156110d8576110d885610fa38685611547565b600060016110e884610100611738565b6110f29190611627565b90508551838682010185831982511617815250805184870111156111165783860181525b509495945050505050565b6000818311156111325750816103ec565b50919050565b81516111448383610d2c565b50610db58382610e9e565b6040805160a0810182526000808252602080830182905282840182905260608084018390528451808601909552845283015290608082015290565b60006020828403121561119c57600080fd5b81356001600160e01b031981168114610ec557600080fd5b6000602082840312156111c657600080fd5b5035919050565b6000815180845260005b818110156111f3576020818501810151868301820152016111d7565b506000602082860101526020601f19601f83011685010191505092915050565b60408152600061122660408301856111cd565b8281036020840152610a7481856111cd565b80356001600160a01b038116811461124f57600080fd5b919050565b60006020828403121561126657600080fd5b610ec582611238565b60008083601f84011261128157600080fd5b5081356001600160401b0381111561129857600080fd5b6020830191508360208285010111156112b057600080fd5b9250929050565b6000806000806000606086880312156112cf57600080fd5b6112d886611238565b945060208601356001600160401b038111156112f357600080fd5b6112ff8882890161126f565b90955093505060408601356001600160401b0381111561131e57600080fd5b61132a8882890161126f565b969995985093965092949392505050565b801515811461134957600080fd5b50565b6000806000806080858703121561136257600080fd5b8435935060208501359250604085013561137b8161133b565b9396929550929360600135925050565b6020808252601c908201527f5048524e46543a20746f6b656e20646f6573206e6f7420657869737400000000604082015260600190565b600181811c908216806113d657607f821691505b60208210810361113257634e487b7160e01b600052602260045260246000fd5b634e487b7160e01b600052601160045260246000fd5b60006001820161141e5761141e6113f6565b5060010190565b634e487b7160e01b600052604160045260246000fd5b601f821115610a9b57806000526020600020601f840160051c810160208510156114625750805b601f840160051c820191505b81811015611482576000815560010161146e565b5050505050565b81516001600160401b038111156114a2576114a2611425565b6114b6816114b084546113c2565b8461143b565b6020601f8211600181146114ea57600083156114d25750848201515b600019600385901b1c1916600184901b178455611482565b600084815260208120601f198516915b8281101561151a57878501518255602094850194600190920191016114fa565b50848210156115385786840151600019600387901b60f8161c191681555b50505050600190811b01905550565b808201808211156103ec576103ec6113f6565b6001600160a01b0389811682526020820189905260408201889052861660608201526001600160e01b03198516608082015260a0810184905260c0810183905261010060e082018190526000906115b3908301846111cd565b9a9950505050505050505050565b60018060a01b0384168152826020820152606060408201526000610a7460608301846111cd565b6000602082840312156115fa57600080fd5b8151610ec58161133b565b60008261162257634e487b7160e01b600052601260045260246000fd5b500690565b818103818111156103ec576103ec6113f6565b80820281158282048414176103ec576103ec6113f6565b6001815b600184111561168c57808504811115611670576116706113f6565b600184161561167e57908102905b60019390931c928002611655565b935093915050565b6000826116a3575060016103ec565b816116b0575060006103ec565b81600181146116c657600281146116d0576116ec565b60019150506103ec565b60ff8411156116e1576116e16113f6565b50506001821b6103ec565b5060208310610133831016604e8410600b841016171561170f575081810a6103ec565b61171c6000198484611651565b8060001904821115611730576117306113f6565b029392505050565b6000610ec5838361169456fea26469706673582212205923fac04a4bb24776e47c0ba50c2ccef47910a3f6f7274012d8b7c375b85c2a64736f6c634300081b0033",
  "linkReferences": {},
  "deployedLinkReferences": {}
}